:100000000C9450000C945A000C945A000C945A0012
:100010000C945A000C945A000C945A000C945A00F8
:100020000C945A000C945A000C945A000C945A00E8
:100030000C945A000C945A000C945A000C945A00D8
:100040000C945A000C945A000C945A000C945A00C8
:100050000C945A000C945A000C945A000C945A00B8
:100060000C945A000C945A000C945A000C945A00A8
:100070000C945A000C945A000C945A000C945A0098
:100080000C945A000C945A000C945A000C945A0088
:100090000C945A000C945A000C945A000C945A0078
:1000A00011241FBECFEFCDBFDFE3DEBF0E945C0097
:1000B0000C94D5000C94000088ED84BF1092610070
:1000C00088E08093300480933104809332048093DD
:1000D00033048093340480933504809356048093D2
:1000E000570480E090E041E050E09A01082E01C002
:1000F000220F0A94EAF72093010420930504209329
:1001000062042FE332E46FE0215030406040E1F7B9
:1001100000C0000001968830910539F78FE794E818
:100120002EE1815090402040E1F700C0000080E0C7
:1001300090E041E050E09A01082E01C0220F0A949D
:10014000EAF7209306043FE362E42FE03150604079
:100150002040E1F700C0000001968830910559F772
:1001600041E050E080E090E02091680430E0082E0B
:1001700002C0359527950A94E2F720FF09C09A013D
:10018000082E01C0220F0A94EAF72093050408C044
:100190009A01082E01C0220F0A94EAF72093060460
:0E01A000019688309105F1F2DFCFF894FFCF81
:00000001FF
